:040000000C94440018
:100004000C9400000C9400000C9400000C9400006C
:100014000C9400000C9400000C9400000C9400005C
:100024000C9400000C9400000C9400000C9400004C
:100034000C9400000C9400000C9400000C9400003C
:100044000C9400000C9400000C9400000C9400002C
:100054000C9400000C9400000C9400000C9400001C
:100064000C940000000000000000000000000000EC
:10007400000000000000000000000000000000007C
:1000840000000000F894EE27EFBBF1E0F5BFE5BFF8
:100094008DE0A2E0BB27ED938A95E9F780E094E038
:1000A400A0E0B1E0ED930197E9F7E0E0EEBBEFEFFC
:1000B400EDBFE4E0EEBFC0E0D2E00C94BB002497B7
:1000C400E0E0E883E983EA83EB831A931A2F4398E9
:1000D400E983EA83EB83EC83A981BA818B819C81D8
:1000E400A831E0E0BE07E0E08E07E0E09E0780F57F
:1000F4002D9885E88A95F1F71C9B10C0E981A1E051
:10010400B0E0B6D0A0910002B09101028091020249
:100114009091030266277727A6D001C08FD0E09381
:100124000002F093010260930202709303022D9A7D
:1001340085E88A95F1F7E981FA816B817C81EF5F2B
:10014400FF4F6F4F7F4FE983FA836B837C83C4CF68
:10015400439AA1E0B0E0A2D04398A1E0B0E09ED0E1
:10016400439A6CD0EF7FFF7F6F7170701881259672
:100174000895A09780E260E070E0E8E6F0E067D0E0
:10018400EFEEE4B9E0E0E5B9EFEFE7B9E0E0E8B9B4
:10019400EFEFEAB9E0E0EBB9439AA4E6B0E07ED031
:1001A400E0E0E4BDE5BDE6BDE7BDE8BDE3EAE0931C
:1001B4008000E1E0E0938100E0E0E0938500E093DB
:1001C4008400E0938700E0938600E0938800E09346
:1001D4008900E0938A00E0938B00E093B600E093FB
:1001E400B000E093B100E093B200E093B300E09379
:1001F400B400E0936E00E0936F00E0937000E5BFFD
:10020400E0936900EDBBE0936800E093C100E0E88F
:10021400E0BFE0E0E0937B00E0937F00E1E0E09367
:100224007E00E0E0ECBDE093BC007894A1E047DF01
:1002340030D0A4E6B0E032D0F9CFFFCFE091000295
:10024400F091010260910202709103020895AF934C
:10025400BF93DB01AC0FBD1F05900D928A95E1F7AA
:10026400BF91AF910895EA2BFB2B682B792B08954E
:10027400EE230E2EE8E01E2EFD0151F0011420F0B5
:10028400FE2FE0E0011821F0EE0FFF1F0A94E1F7C2
:100294000895E883F9836A837B830895109639F07F
:1002A400A89588EE93E00197F1F71197C9F708959F
:00000001FF
