:0800000021C0FECFFDCFFCCFB3
:10000800FBCFFACFF9CFF8CFF7CF44C0F5CFF4CF75
:10001800F3CFF2CFF1CFF0CFEFCFEECFEDCF00009F
:10002800FFFF000C3F065B4F666D7D277F6F060064
:10003800040026000A0060012C000000F894EE2756
:10004800ECBBF1E0FBBFEBBFE5BF8DE0A2E0BB2757
:10005800ED938A95E9F780E094E0A0E6ED930197A7
:10006800E9F7E6E3F0E085919591009761F0A591B5
:10007800B59105901590BF01F00105900D9201977B
:10008800E1F7FB01F0CFEFE5EDBFE4E0EEBFC0E63E
:10009800D1E05FC0AA93EA93FA93EFB7EA93E0E05E
:1000A800E5BBE0916E01F0E0309739F4E1E0E5BBA3
:1000B800E0916D01ABD0E1E020C0E130A0E0FA07AB
:1000C80039F4E2E0E5BBE0916C01A0D0E2E015C0B4
:1000D800E230A0E0FA0739F4E4E0E5BBE0916B0117
:1000E80095D0E3E00AC0E330A0E0FA0741F4E8E085
:1000F800E5BBE0916A018AD0E0E0E0936E01E99106
:10010800EFBFF991E991A991189587D08D01E8EE93
:10011800F3E086D0E0936D01D801E8EEF3E093D0E8
:10012800DF01E4E6F0E07CD0E0936C01D801E4E67E
:10013800F0E089D0DF01EAE0F0E072D0E0936B01F3
:10014800D801EAE0F0E07FD0E0936A0109911991C3
:10015800089500E010E0E1E0E7BBE0E0E8BBEFEF86
:10016800E4BBE0E0E5BBEFEFE1BBE0E0E2BBE1E0F0
:10017800E3BFE0E0E2BFEFBDEEBDEDBDECBDE7BD26
:10018800E6BDEBBDEABDE9BDE8BDE2BDE5BDE4BD48
:10019800E3BDE1E0E9BFE0E0E5BFEAB9E0E8E8B9DE
:1001A800E0E0E0BFE6B9EDB9E6BF50D0A1E0B0E0CD
:1001B8009DD07894F20131962F01F30131973F01D8
:1001C800EFEFFFEFE415F50510F44424552443D070
:1001D800E03041F0A0E472D0E42DAE2F6FD0A52D11
:1001E8006DD048D038D0E03041F0A2E467D0E62D99
:1001F800AE2F64D0A72D62D03DD00F5F1F4FD8011E
:1002080084DFA4E6B0E072D0D5CFFFCFF0E0E05AAB
:10021800FE4FE081E095E2BB08951A930A93089592
:100228000024112490E1AA0FBB1F001C111C0E1AF8
:100238001F0A18F40E0E1F1E01C0A1609A9599F7A7
:10024800FD01D0010895ECDFFD010895C098C19823
:10025800B89AB99815C0B998B898EE270000B19B1C
:100268000895B09B089504D0B99A02D0B89AE1E0F5
:1002780065E007C0B99AB89A03D0B898F9DFB99879
:100288006AE06A95F1F7089578E0B898F1DFB09BD5
:10029800FECFEEDF8894B1990894B89AF1DFEE1F8B
:1002A8007A9599F7AA2311F4B99801C0B99AE0DFB1
:1002B800B898E6DFB89ADCDFB998DACF78E0AA0F09
:1002C80010F4B99801C0B99ADBDFB898D1DFB09BB8
:1002D800FECFCEDFB89A7A9591F7B998C9DFB8986A
:1002E800CFDFE1E0B199EE27B89AC2CF109639F086
:1002F800A89580ED97E00197F1F71197C9F7089550
:00000001FF
